:100000000C942A000C9434000C9434000C943400AA
:100010000C9434000C9434000C9434000C94340090
:100020000C9434000C9434000C9434000C94340080
:100030000C9434000C9434000C9434000C94340070
:100040000C9434000C9434000C9434000C94340060
:100050000C94340011241FBECFE5D8E0DEBFCDBF25
:100060000E9491010C94C3010C94000040E060E0F8
:1000700081E00E944100089560E081E00E9421013A
:1000800008954130A1F5813089F028F08230C9F01F
:10009000833011F108952AB381E090E002C0880F07
:1000A000991F6A95E2F7822B8ABB089527B381E0F6
:1000B00090E002C0880F991F6A95E2F7822B87BBF8
:1000C000089524B381E090E002C0880F991F6A95DB
:1000D000E2F7822B84BB089521B381E090E002C057
:1000E000880F991F6A95E2F7822B81BB0895411111
:1000F00037C0813091F028F08230D9F0833029F177
:1001000008952AB381E090E002C0880F991F6A9594
:10011000E2F7809582238ABB089527B381E090E0BF
:1001200002C0880F991F6A95E2F78095822387BBEA
:10013000089524B381E090E002C0880F991F6A956A
:10014000E2F78095822384BB089521B381E090E09B
:1001500002C0880F991F6A95E2F78095822381BBC0
:1001600008954130A1F5813089F028F08230C9F03E
:10017000833011F108952BB381E090E002C0880F25
:10018000991F6A95E2F7822B8BBB089528B381E013
:1001900090E002C0880F991F6A95E2F7822B88BB16
:1001A000089525B381E090E002C0880F991F6A95F9
:1001B000E2F7822B85BB089522B381E090E002C074
:1001C000880F991F6A95E2F7822B82BB089541112F
:1001D00037C0813091F028F08230D9F0833029F196
:1001E00008952BB381E090E002C0880F991F6A95B3
:1001F000E2F7809582238BBB089528B381E090E0DD
:1002000002C0880F991F6A95E2F78095822388BB08
:10021000089525B381E090E002C0880F991F6A9588
:10022000E2F78095822385BB089522B381E090E0B8
:1002300002C0880F991F6A95E2F78095822382BBDE
:100240000895813079F028F08230A9F08330E1F010
:1002500024C089B390E002C0959587956A95E2F72E
:100260008170089586B390E002C0959587956A9550
:10027000E2F78170089583B390E002C09595879569
:100280006A95E2F78170089580B390E002C0959579
:1002900087956A95E2F78170089580E0089541E0BE
:1002A00067E082E00E94410041E067E082E00E9456
:1002B000B100089541E062E082E00E94410041E027
:1002C00062E082E00E94B100089541E063E083E0D3
:1002D0000E94410041E063E083E00E94B100089584
:1002E00041E067E082E00E94410040E067E082E098
:1002F0000E94B100089541E062E082E00E94410066
:1003000040E062E082E00E94B100089541E063E0D5
:1003100083E00E94410040E063E083E00E94B1007E
:1003200008950E9436000E943C008130E1F70E944F
:100330004F012FEF84E39CE0215080409040E1F793
:1003400000C000000E9470010E945A012FEF84E358
:100350009CE0215080409040E1F700C000000E94E6
:100360007B010E9465012FEF84E39CE021508040D7
:100370009040E1F700C000000E9486010E943C000E
:0A0380008130E1F3D0CFF894FFCFF5
:00000001FF
